:107F5200ABEF3FF00F0EC16E070EB46E720ED36E12
:107F6200F00E936EF19E8A6A046A010E066E8A8092
:107F7200C3EC3FF0D0EC3FF08A90C3EC3FF0D0EC82
:107F82003FF0F5D7200E036EFF0E026EFF0E016E5C
:107F9200012EFED7022EFAD7032EF6D71200DBEC03
:107FA2003FF0045006E0DBEC3FF00000000004501C
:107FB200FAE1120081B8E1EF3FF0056AE3EF3FF02A
:107FC200010E056E0550061810E0F7EC3FF081B87F
:107FD200EEEF3FF0056AF0EF3FF0010E056E05503F
:107FE200066E055002E1010E041A1200640E006EC4
:0E7FF2000000000000000000002EFAD7120070
:020000040030CA
:0400000000081F1EB7
:020005008181F7
:060008000FC00FE00F40E5
:00000001FF
