:107F8600C5EF3FF0936A8A6A010E926E808080A0E8
:107F9600D1EF3FF08A908A92CAEF3FF08A808A82B8
:107FA600DEEC3FF08A908A92EFEC3FF080B0CAEFA9
:107FB6003FF0D1EF3FF07D0E606FC80E616F00009D
:107FC60000000000000080B01200612FE2EF3FF0D9
:107FD600602FE0EF3FF01200320E606FC80E616F47
:107FE600000000000000000080B01200612FF3EFD7
:0A7FF6003FF0602FF1EF3FF01200A2
:020000040030CA
:0400000000081F1EB7
:020005008181F7
:060008000FC00FE00F40E5
:00000001FF
