:107F30009AEF3FF0936A8A6A010E926E8080626BBC
:107F400080A0D6EF3FF06251030B000E621905E0EE
:107F5000010E62190BE0C6EF3FF00F0E8A6EDEECE9
:107F60003FF08A6ADEEC3FF0A0EF3FF0050E8A6E2C
:107F7000DEEC3FF08A6AEFEC3FF00A0E8A6EDEEC30
:107F80003FF08A6AEFEC3FF0A0EF3FF0090E8A6EF7
:107F9000DEEC3FF08A6AEFEC3FF0060E8A6EDEEC14
:107FA0003FF08A6AEFEC3FF0A0EF3FF080A0D6EF01
:107FB0003FF0622B030E6217A0EF3FF0190E606FC7
:107FC000C80E616F000000000000000080A01200D9
:107FD000612FE2EF3FF0602FE0EF3FF012000C0E58
:107FE000606FC80E616F000000000000000080A0FC
:107FF0001200612FF3EF3FF0602FF1EF3FF012001E
:020000040030CA
:0400000000081F1EB7
:020005008181F7
:060008000FC00FE00F40E5
:00000001FF
