:107F8C00C8EF3FF0936A8A6A010E926E808080A0DF
:107F9C00D3EF3FF08A90CDEF3FF08A80DEEC3FF0DC
:107FAC008A90EFEC3FF080B0CDEF3FF0D3EF3FF095
:107FBC007D0E606FC80E616F0000000000000000B5
:107FCC0080B01200612FE2EF3FF0602FE0EF3FF046
:107FDC001200320E606FC80E616F000000000000CE
:107FEC00000080B01200612FF3EF3FF0602FF1EF33
:047FFC003FF0120040
:020000040030CA
:0400000000081F1EB7
:020005008181F7
:060008000FC00FE00F40E5
:00000001FF
