:107F200092EF3FF0936A8A6A010E926E896A626BE1
:107F300080B0CEEF3FF06251030B000E621905E0F6
:107F4000010E62190BE0BEEF3FF00F0E8A6ED8EC07
:107F50003FF08A6AD8EC3FF098EF3FF0050E8A6E4A
:107F6000D8EC3FF08A6AE9EC3FF00A0E8A6ED8EC52
:107F70003FF08A6AE9EC3FF098EF3FF0090E8A6E15
:107F8000D8EC3FF08A6AE9EC3FF0060E8A6ED8EC36
:107F90003FF08A6AE9EC3FF098EF3FF080B0CEEF17
:107FA0003FF0FAEC3FF0622B030E621798EF3FF0C0
:107FB000190E606FC80E616F000000000000000025
:107FC00080B01200612FDCEF3FF0602FDAEF3FF05E
:107FD00012000C0E606FC80E616F00000000000000
:107FE000000080B01200612FEDEF3FF0602FEBEF4B
:107FF0003FF01200320E616F612FFCEF3FF0120074
:020000040030CA
:0400000000081F1EB7
:020005008181F7
:060008000FC00FE00F40E5
:00000001FF
