:107F8A00C7EF3FF0936A8A6A010E926E808080A0E2
:107F9A00D2EF3FF08A6ACCEF3FF00F0E8A6EDEEC2A
:107FAA003FF08A6AEFEC3FF080B0CCEF3FF0D2EFBF
:107FBA003FF07D0E606FC80E616F00000000000088
:107FCA00000080B01200612FE2EF3FF0602FE0EF77
:107FDA003FF01200320E606FC80E616F00000000A1
:107FEA000000000080B01200612FF3EF3FF0602F15
:067FFA00F1EF3FF0120060
:020000040030CA
:0400000000081F1EB7
:020005008181F7
:060008000FC00FE00F40E5
:00000001FF
