:04000000B7EF3FF027
:107F6E00720ED36E9B6A0F0EC16E070EB46E936ABD
:107F7E008A908A80D2EC3FF0D2EC3FF0D2EC3FF008
:107F8E00D2EC3FF0D2EC3FF08A90D2EC3FF0D2EC44
:107F9E003FF0C0EF3FF0960E006FEFEC3FF0002F7A
:107FAE00D4EF3FF0960E006FEFEC3FF0002FDBEFBB
:107FBE003FF0960E006FEFEC3FF0002FE2EF3FF038
:107FCE00960E006FEFEC3FF0002FE9EF3FF012003E
:107FDE00E10E016F00000000012FF1EF3FF0E10E06
:107FEE00016F00000000012FF8EF3FF000000000CD
:027FFE0012006F
:020000040030CA
:0400000000081F1EB7
:020005008181F7
:060008000FC00FE00F40E5
:00000001FF
