:107F5A00AFEF3FF0F00E936E8A6A720ED36E046A28
:107F6A00066A045003E0010A15E020D0010E8A6E69
:107F7A00E6EC3FF0020E8A6EE6EC3FF0040E8A6EE3
:107F8A00E6EC3FF0080E8A6EE6EC3FF08A6AE6EC11
:107F9A003FF0E7D7030E006E0F0E8A6EF3EC3FF048
:107FAA008A6AF3EC3FF0002EF7D7DBD7006A100E8F
:107FBA00056E00508A6EF3EC3FF0002A052EF9D7C1
:107FCA00D0D7200E036EFF0E026EFF0E016E012E39
:107FDA00FED7022EFAD7032EF6D71200800E036EB2
:107FEA00FF0E026EFF0E016E012EFED7022EFAD789
:067FFA00032EF6D7120071
:020000040030CA
:0400000000081F1EB7
:020005008181F7
:060008000FC00FE00F40E5
:00000001FF
