:107F0600720ED36E9B6A0F0EC16E070EB46E956A23
:107F16008C6A9380036A026A8150010B046E03180F
:107F26000EE004A0A2EF3FF0022A030E0260026AEE
:107F36000F0E8C6EDFEC3FF08C6ADFEC3FF004C076
:107F460003F0025008E0010E025C1CE0020E025C27
:107F560027E0AEEF3FF0010E8C6EE7EC3FF0020E2D
:107F66008C6EE7EC3FF0040E8C6EE7EC3FF0080EEB
:107F76008C6EE7EC3FF08C6AE7EC3FF0E7EC3FF005
:107F86008FEF3FF0030E006E0F0E8C6EE7EC3FF0A6
:107F96008C6AE7EC3FF0002EC7EF3FF08FEF3FF023
:107FA600006A100E00508C6EE7EC3FF0002AE82EB7
:107FB600D5EF3FF08FEF3FF0C80E006EF7EC3FF0C5
:107FC600002EE1EF3FF01200C80E006EFF0E016EAC
:107FD600FF0E046E042EEDEF3FF0012EEBEF3FF0A7
:107FE600002EE9EF3FF01200640E016E0000000063
:0A7FF6000000012EF9EF3FF0120029
:020000040030CA
:0400000000081F1EB7
:020005008181F7
:060008000FC00FE00F40E5
:00000001FF
