:107EB400720ED36E9B6A0F0EC16E070EB46E956A76
:107EC4008C6A9380036A026A8150010B046E031862
:107ED4000EE004A079EF3FF0022A030E0260026A6A
:107EE4000F0E8C6ED2EC3FF08C6AD2EC3FF004C0E3
:107EF40003F0025008E0010E025C1CE0020E025C7A
:107F040030E085EF3FF0010E8C6EDAEC3FF0020EAC
:107F14008C6EDAEC3FF0040E8C6EDAEC3FF0080E57
:107F24008C6EDAEC3FF08C6ADAEC3FF0DAEC3FF07E
:107F340066EF3FF0080E8C6EDAEC3FF0040E8C6EA8
:107F4400DAEC3FF0020E8C6EDAEC3FF0010E8C6E30
:107F5400DAEC3FF08C6ADAEC3FF0DAEC3FF066EFF3
:107F64003FF0090E8C6EDAEC3FF0060E8C6EDAEC04
:107F74003FF0090E8C6EDAEC3FF0060E8C6EDAECF4
:107F84003FF0090E8C6EDAEC3FF0060E8C6EDAECE4
:107F94003FF08C6ADAEC3FF0DAEC3FF066EF3FF04A
:107FA400C80E006EF7EC3FF0002ED4EF3FF0120045
:107FB400FA0E006EF7EC3FF0002EDCEF3FF0FA0E05
:107FC400006EF7EC3FF0002EE3EF3FF0FA0E006E88
:107FD400F7EC3FF0002EEAEF3FF0FA0E006EF7ECFC
:107FE4003FF0002EF1EF3FF01200640E016E00002E
:0C7FF40000000000012EF9EF3FF0120029
:020000040030CA
:0400000000081F1EB7
:020005008181F7
:060008000FC00FE00F40E5
:00000001FF
