:107F5200720ED36E9B6A0F0EC16E070EB46E956AD7
:107F62008C6A9380036A026A025008E0010E025C86
:107F72001CE0020E025C27E0BFEF3FF0010E8C6EA8
:107F8200F0EC3FF0020E8C6EF0EC3FF0040E8C6EC3
:107F9200F0EC3FF0080E8C6EF0EC3FF08C6AF0ECE7
:107FA2003FF0F0EC3FF0B5EF3FF0030E006E0F0E26
:107FB2008C6EF0EC3FF08C6AF0EC3FF0002ED8EFC4
:107FC2003FF0B5EF3FF0006A100E00508C6EF0ECFF
:107FD2003FF0002AE82EE6EF3FF0B5EF3FF0C80E83
:107FE200006EFF0E016EFF0E046E042EF6EF3FF0E0
:0E7FF200012EF4EF3FF0002EF2EF3FF01200F0
:020000040030CA
:0400000000081F1EB7
:020005008181F7
:060008000FC00FE00F40E5
:00000001FF
