:04000000B1EF3FF02D
:107F6200720ED36E9B6A0F0EC16E070EB46E936AC9
:107F72008A908A928A948A808A828A84D2EC3FF09A
:107F8200D2EC3FF0D2EC3FF0D2EC3FF0D2EC3FF03B
:107F92008A908A928A94D2EC3FF0D2EC3FF0BCEF06
:107FA2003FF0FA0E006FEFEC3FF0002FD4EF3FF0FE
:107FB200FA0E006FEFEC3FF0002FDBEF3FF0FA0E0E
:107FC200006FEFEC3FF0002FE2EF3FF0FA0E006F90
:107FD200EFEC3FF0002FE9EF3FF01200C80E016F07
:107FE20000000000012FF1EF3FF0C80E016F00000A
:0E7FF2000000012FF8EF3FF000000000120029
:020000040030CA
:0400000000081F1EB7
:020005008181F7
:060008000FC00FE00F40E5
:00000001FF
