:107ECA0067EF3FF00F0EC16E070EB46EF00E936EA1
:107EDA008A6AF19E720ED36E046A010E066E076AF2
:107EEA00D1EC3FF0045003E0010A1FE02ED0010E4E
:107EFA008A6EB7EC3FF0F2EC3FF0020E8A6EB7ECF6
:107F0A003FF0F2EC3FF0040E8A6EB7EC3FF0F2EC71
:107F1A003FF0080E8A6EB7EC3FF0F2EC3FF08A6A47
:107F2A00B7EC3FF0F2EC3FF0DBD7030E006E0F0E1A
:107F3A008A6EC4EC3FF0F2EC3FF08A6AC4EC3FF080
:107F4A00F2EC3FF0002EF3D7CBD7006A100E056E85
:107F5A0000508A6EC4EC3FF0F2EC3FF0002A052E86
:107F6A00F7D7BED7200E036EFF0E026EFF0E016E0C
:107F7A00012EFED7022EFAD7032EF6D71200800E54
:107F8A00036EFF0E026EFF0E016E012EFED7022E49
:107F9A00FAD7032EF6D7120081B8D7EF3FF0056A59
:107FAA00D9EF3FF0010E056E0550061815E0F9EC01
:107FBA003FF081B8E4EF3FF0056AE6EF3FF0010ECB
:107FCA00056E0550066E055007E1010E071A042AD0
:107FDA00030E046001D0046A1200075004E0D1ECD9
:107FEA003FF00750FCE11200140E006E0000000082
:067FFA00002EFCD712006E
:020000040030CA
:0400000000081F1EB7
:020005008181F7
:060008000FC00FE00F40E5
:00000001FF
